{
  "contractName": "MedicalApp",
  "abi": [
    {
      "inputs": [
        {
          "internalType": "address",
          "name": "patient_address",
          "type": "address"
        }
      ],
      "name": "getMedical",
      "outputs": [
        {
          "components": [
            {
              "internalType": "string",
              "name": "datetime",
              "type": "string"
            },
            {
              "internalType": "string",
              "name": "info",
              "type": "string"
            }
          ],
          "internalType": "struct MedicalApp.MedicalRecord[]",
          "name": "",
          "type": "tuple[]"
        },
        {
          "internalType": "bool",
          "name": "",
          "type": "bool"
        }
      ],
      "stateMutability": "view",
      "type": "function"
    },
    {
      "inputs": [
        {
          "internalType": "address",
          "name": "patient_address",
          "type": "address"
        },
        {
          "internalType": "string",
          "name": "datetime",
          "type": "string"
        },
        {
          "internalType": "string",
          "name": "info",
          "type": "string"
        }
      ],
      "name": "createMedicalRecord",
      "outputs": [
        {
          "internalType": "bool",
          "name": "",
          "type": "bool"
        }
      ],
      "stateMutability": "nonpayable",
      "type": "function"
    },
    {
      "inputs": [
        {
          "internalType": "address",
          "name": "doctor_address",
          "type": "address"
        }
      ],
      "name": "regDoctorPermit",
      "outputs": [
        {
          "internalType": "bool",
          "name": "",
          "type": "bool"
        }
      ],
      "stateMutability": "payable",
      "type": "function"
    },
    {
      "inputs": [],
      "name": "showDoctorPermit",
      "outputs": [
        {
          "internalType": "address[]",
          "name": "",
          "type": "address[]"
        }
      ],
      "stateMutability": "view",
      "type": "function"
    },
    {
      "inputs": [
        {
          "internalType": "address",
          "name": "doctor_address",
          "type": "address"
        }
      ],
      "name": "deleteDoctorPermit",
      "outputs": [
        {
          "internalType": "bool",
          "name": "",
          "type": "bool"
        },
        {
          "internalType": "string",
          "name": "",
          "type": "string"
        }
      ],
      "stateMutability": "payable",
      "type": "function"
    }
  ],
  "bytecode": "0x608060405234801561000f575f80fd5b506113f18061001d5f395ff3fe608060405260043610610049575f3560e01c806350d903611461004d578063a79d6f0814610089578063c616eeea146100b9578063c849241a146100ea578063ed823b8114610127575b5f80fd5b348015610058575f80fd5b50610073600480360381019061006e9190610c71565b610151565b6040516100809190610d13565b60405180910390f35b6100a3600480360381019061009e9190610d2c565b610332565b6040516100b09190610d13565b60405180910390f35b6100d360048036038101906100ce9190610d2c565b610504565b6040516100e1929190610dd1565b60405180910390f35b3480156100f5575f80fd5b50610110600480360381019061010b9190610d2c565b610710565b60405161011e929190610f43565b60405180910390f35b348015610132575f80fd5b5061013b610a02565b6040516101489190611028565b60405180910390f35b5f805f90505f5b5f808773ffffffffffffffffffffffffffffffffffffffff1673ffffffffffffffffffffffffffffffffffffffff1681526020019081526020015f2060010180549050811015610265573373ffffffffffffffffffffffffffffffffffffffff165f808873ffffffffffffffffffffffffffffffffffffffff1673ffffffffffffffffffffffffffffffffffffffff1681526020019081526020015f20600101828154811061020a57610209611048565b5b905f5260205f20015f9054906101000a900473ffffffffffffffffffffffffffffffffffffffff1673ffffffffffffffffffffffffffffffffffffffff160361025257600191505b808061025d906110ab565b915050610158565b506001151581151503610326575f60405180604001604052808681526020018581525090505f808773ffffffffffffffffffffffffffffffffffffffff1673ffffffffffffffffffffffffffffffffffffffff1681526020019081526020015f205f0181908060018154018082558091505060019003905f5260205f2090600202015f909190919091505f820151815f01908161030291906112ec565b50602082015181600101908161031891906112ec565b50505060019250505061032b565b5f9150505b9392505050565b5f805f90505f5b5f803373ffffffffffffffffffffffffffffffffffffffff1673ffffffffffffffffffffffffffffffffffffffff1681526020019081526020015f2060010180549050811015610446578373ffffffffffffffffffffffffffffffffffffffff165f803373ffffffffffffffffffffffffffffffffffffffff1673ffffffffffffffffffffffffffffffffffffffff1681526020019081526020015f2060010182815481106103eb576103ea611048565b5b905f5260205f20015f9054906101000a900473ffffffffffffffffffffffffffffffffffffffff1673ffffffffffffffffffffffffffffffffffffffff160361043357600191505b808061043e906110ab565b915050610339565b50600115158115150361045c575f9150506104ff565b5f803373ffffffffffffffffffffffffffffffffffffffff1673ffffffffffffffffffffffffffffffffffffffff1681526020019081526020015f2060010183908060018154018082558091505060019003905f5260205f20015f9091909190916101000a81548173ffffffffffffffffffffffffffffffffffffffff021916908373ffffffffffffffffffffffffffffffffffffffff16021790555060019150505b919050565b5f60605f5b5f803373ffffffffffffffffffffffffffffffffffffffff1673ffffffffffffffffffffffffffffffffffffffff1681526020019081526020015f20600101805490508110156106ce578373ffffffffffffffffffffffffffffffffffffffff165f803373ffffffffffffffffffffffffffffffffffffffff1673ffffffffffffffffffffffffffffffffffffffff1681526020019081526020015f2060010182815481106105bb576105ba611048565b5b905f5260205f20015f9054906101000a900473ffffffffffffffffffffffffffffffffffffffff1673ffffffffffffffffffffffffffffffffffffffff16036106bb575f803373ffffffffffffffffffffffffffffffffffffffff1673ffffffffffffffffffffffffffffffffffffffff1681526020019081526020015f20600101818154811061064f5761064e611048565b5b905f5260205f20015f6101000a81549073ffffffffffffffffffffffffffffffffffffffff021916905560016040518060400160405280601581526020017f54686520646f63746f722069732064656c657465640000000000000000000000815250925092505061070b565b80806106c6906110ab565b915050610509565b505f6040518060400160405280601d81526020017f54686520646f63746f72206973206e6f7420696e20746865206c697374000000815250915091505b915091565b60605f805f90505f5b5f808673ffffffffffffffffffffffffffffffffffffffff1673ffffffffffffffffffffffffffffffffffffffff1681526020019081526020015f2060010180549050811015610826573373ffffffffffffffffffffffffffffffffffffffff165f808773ffffffffffffffffffffffffffffffffffffffff1673ffffffffffffffffffffffffffffffffffffffff1681526020019081526020015f2060010182815481106107cb576107ca611048565b5b905f5260205f20015f9054906101000a900473ffffffffffffffffffffffffffffffffffffffff1673ffffffffffffffffffffffffffffffffffffffff160361081357600191505b808061081e906110ab565b915050610719565b5060011515811515036109f2575f808573ffffffffffffffffffffffffffffffffffffffff1673ffffffffffffffffffffffffffffffffffffffff1681526020019081526020015f205f01600181805480602002602001604051908101604052809291908181526020015f905b828210156109e2578382905f5260205f2090600202016040518060400160405290815f820180546108c39061111f565b80601f01602080910402602001604051908101604052809291908181526020018280546108ef9061111f565b801561093a5780601f106109115761010080835404028352916020019161093a565b820191905f5260205f20905b81548152906001019060200180831161091d57829003601f168201915b505050505081526020016001820180546109539061111f565b80601f016020809104026020016040519081016040528092919081815260200182805461097f9061111f565b80156109ca5780601f106109a1576101008083540402835291602001916109ca565b820191905f5260205f20905b8154815290600101906020018083116109ad57829003601f168201915b50505050508152505081526020019060010190610893565b50505050915092509250506109fd565b6060805f9350935050505b915091565b60605f803373ffffffffffffffffffffffffffffffffffffffff1673ffffffffffffffffffffffffffffffffffffffff1681526020019081526020015f20600101805480602002602001604051908101604052809291908181526020018280548015610ac057602002820191905f5260205f20905b815f9054906101000a900473ffffffffffffffffffffffffffffffffffffffff1673ffffffffffffffffffffffffffffffffffffffff1681526020019060010190808311610a77575b5050505050905090565b5f604051905090565b5f80fd5b5f80fd5b5f73ffffffffffffffffffffffffffffffffffffffff82169050919050565b5f610b0482610adb565b9050919050565b610b1481610afa565b8114610b1e575f80fd5b50565b5f81359050610b2f81610b0b565b92915050565b5f80fd5b5f80fd5b5f601f19601f8301169050919050565b7f4e487b71000000000000000000000000000000000000000000000000000000005f52604160045260245ffd5b610b8382610b3d565b810181811067ffffffffffffffff82111715610ba257610ba1610b4d565b5b80604052505050565b5f610bb4610aca565b9050610bc08282610b7a565b919050565b5f67ffffffffffffffff821115610bdf57610bde610b4d565b5b610be882610b3d565b9050602081019050919050565b828183375f83830152505050565b5f610c15610c1084610bc5565b610bab565b905082815260208101848484011115610c3157610c30610b39565b5b610c3c848285610bf5565b509392505050565b5f82601f830112610c5857610c57610b35565b5b8135610c68848260208601610c03565b91505092915050565b5f805f60608486031215610c8857610c87610ad3565b5b5f610c9586828701610b21565b935050602084013567ffffffffffffffff811115610cb657610cb5610ad7565b5b610cc286828701610c44565b925050604084013567ffffffffffffffff811115610ce357610ce2610ad7565b5b610cef86828701610c44565b9150509250925092565b5f8115159050919050565b610d0d81610cf9565b82525050565b5f602082019050610d265f830184610d04565b92915050565b5f60208284031215610d4157610d40610ad3565b5b5f610d4e84828501610b21565b91505092915050565b5f81519050919050565b5f82825260208201905092915050565b5f5b83811015610d8e578082015181840152602081019050610d73565b5f8484015250505050565b5f610da382610d57565b610dad8185610d61565b9350610dbd818560208601610d71565b610dc681610b3d565b840191505092915050565b5f604082019050610de45f830185610d04565b8181036020830152610df68184610d99565b90509392505050565b5f81519050919050565b5f82825260208201905092915050565b5f819050602082019050919050565b5f82825260208201905092915050565b5f610e4282610d57565b610e4c8185610e28565b9350610e5c818560208601610d71565b610e6581610b3d565b840191505092915050565b5f604083015f8301518482035f860152610e8a8282610e38565b91505060208301518482036020860152610ea48282610e38565b9150508091505092915050565b5f610ebc8383610e70565b905092915050565b5f602082019050919050565b5f610eda82610dff565b610ee48185610e09565b935083602082028501610ef685610e19565b805f5b85811015610f315784840389528151610f128582610eb1565b9450610f1d83610ec4565b925060208a01995050600181019050610ef9565b50829750879550505050505092915050565b5f6040820190508181035f830152610f5b8185610ed0565b9050610f6a6020830184610d04565b9392505050565b5f81519050919050565b5f82825260208201905092915050565b5f819050602082019050919050565b610fa381610afa565b82525050565b5f610fb48383610f9a565b60208301905092915050565b5f602082019050919050565b5f610fd682610f71565b610fe08185610f7b565b9350610feb83610f8b565b805f5b8381101561101b5781516110028882610fa9565b975061100d83610fc0565b925050600181019050610fee565b5085935050505092915050565b5f6020820190508181035f8301526110408184610fcc565b905092915050565b7f4e487b71000000000000000000000000000000000000000000000000000000005f52603260045260245ffd5b7f4e487b71000000000000000000000000000000000000000000000000000000005f52601160045260245ffd5b5f819050919050565b5f6110b5826110a2565b91507fffffffffffffffffffffffffffffffffffffffffffffffffffffffffffffffff82036110e7576110e6611075565b5b600182019050919050565b7f4e487b71000000000000000000000000000000000000000000000000000000005f52602260045260245ffd5b5f600282049050600182168061113657607f821691505b602082108103611149576111486110f2565b5b50919050565b5f819050815f5260205f209050919050565b5f6020601f8301049050919050565b5f82821b905092915050565b5f600883026111ab7fffffffffffffffffffffffffffffffffffffffffffffffffffffffffffffffff82611170565b6111b58683611170565b95508019841693508086168417925050509392505050565b5f819050919050565b5f6111f06111eb6111e6846110a2565b6111cd565b6110a2565b9050919050565b5f819050919050565b611209836111d6565b61121d611215826111f7565b84845461117c565b825550505050565b5f90565b611231611225565b61123c818484611200565b505050565b5b8181101561125f576112545f82611229565b600181019050611242565b5050565b601f8211156112a4576112758161114f565b61127e84611161565b8101602085101561128d578190505b6112a161129985611161565b830182611241565b50505b505050565b5f82821c905092915050565b5f6112c45f19846008026112a9565b1980831691505092915050565b5f6112dc83836112b5565b9150826002028217905092915050565b6112f582610d57565b67ffffffffffffffff81111561130e5761130d610b4d565b5b611318825461111f565b611323828285611263565b5f60209050601f831160018114611354575f8415611342578287015190505b61134c85826112d1565b8655506113b3565b601f1984166113628661114f565b5f5b8281101561138957848901518255600182019150602085019450602081019050611364565b868310156113a657848901516113a2601f8916826112b5565b8355505b6001600288020188555050505b50505050505056fea2646970667358221220e3d86f701385e4ba61a6c7262118c2ae431c116121fb987782ad2b6c0dc7417c64736f6c63430008150033",
  "immutableReferences": {},
  "source": "// SPDX-License-Identifier: MIT\r\npragma solidity ^0.8.15;\r\n\r\ncontract MedicalApp {\r\n    //structs\r\n    struct Patients {\r\n        MedicalRecord[] medicalRecords;\r\n        address[] DoctorPermit;\r\n    }\r\n\r\n    struct MedicalRecord{\r\n        string datetime;\r\n        string info;\r\n    }\r\n\r\n    // mapping\r\n    mapping (address => Patients) patients;\r\n\r\n    // modifier\r\n    address manager;\r\n    modifier restricted() {\r\n        require(msg.sender == manager);\r\n        _;\r\n    }\r\n\r\n    // Doctor functions\r\n    function getMedical(address patient_address) public view returns (MedicalRecord[] memory, bool){\r\n        bool isCheck = false;\r\n        for(uint i = 0; i< patients[patient_address].DoctorPermit.length; i++){\r\n            if(patients[patient_address].DoctorPermit[i] == msg.sender){\r\n                isCheck = true;\r\n            }\r\n        }\r\n        if(isCheck == true){\r\n            return (patients[patient_address].medicalRecords ,true);\r\n        }else{\r\n            MedicalRecord[] memory empty;\r\n            return (empty, false);\r\n        }\r\n    }\r\n\r\n    function createMedicalRecord(address patient_address, string memory datetime, string memory info) public returns (bool){\r\n        bool isCheck = false;\r\n        for(uint i = 0; i< patients[patient_address].DoctorPermit.length; i++){\r\n            if(patients[patient_address].DoctorPermit[i] == msg.sender){\r\n                isCheck = true;\r\n            }\r\n        }\r\n        if(isCheck == true){\r\n            MedicalRecord memory newMedicalRecord = MedicalRecord(datetime, info);\r\n            patients[patient_address].medicalRecords.push(newMedicalRecord);\r\n            return true;\r\n        }else{\r\n            return false;\r\n        }\r\n    }\r\n\r\n    // function createPatient(address patientAddress) public returns (bool){\r\n    //     // if the patient is already registered\r\n    //     if (patients[patientAddress].DoctorPermit.length != 0){\r\n    //         return false;\r\n    //     }\r\n        \r\n    //     // register patient and add the sender to the list of permitted doctors\r\n    //     patients[patientAddress].DoctorPermit.push(msg.sender);\r\n    //     return true;\r\n    // }\r\n\r\n    // Nurse functions\r\n    function regDoctorPermit(address doctor_address) public payable returns (bool){\r\n        bool isCheck = false;\r\n        for(uint i = 0; i< patients[msg.sender].DoctorPermit.length; i++){\r\n            if(patients[msg.sender].DoctorPermit[i] == doctor_address){\r\n                isCheck = true;\r\n            }\r\n        }\r\n        if (isCheck == true){\r\n            return false;\r\n        }else{\r\n            patients[msg.sender].DoctorPermit.push(doctor_address);\r\n            return true;\r\n        }\r\n    }\r\n\r\n    function showDoctorPermit() public view returns (address[] memory){\r\n        return patients[msg.sender].DoctorPermit;\r\n    }\r\n\r\n    function deleteDoctorPermit(address doctor_address) public payable returns (bool, string memory){\r\n        // if there are only one doctor in the list\r\n        // if (patients[msg.sender].DoctorPermit.length == 1){\r\n        //     return (false, \"You can't delete the last doctor in the list\");\r\n        // }\r\n        // else{\r\n            for(uint i = 0; i< patients[msg.sender].DoctorPermit.length; i++){\r\n                // if the doctor is in the list\r\n                if(patients[msg.sender].DoctorPermit[i] == doctor_address){\r\n                    delete patients[msg.sender].DoctorPermit[i];\r\n                    return (true, \"The doctor is deleted\");\r\n                }\r\n            }\r\n            return (false, \"The doctor is not in the list\");\r\n        // }\r\n    }\r\n\r\n}\r\n",
  "sourcePath": "C:\\Project BlockChain\\Medical-Healthcare-Dapp\\smart_contract\\contracts\\MedicalApp.sol",
  "compiler": {
    "name": "solc",
    "version": "0.8.21+commit.d9974bed.Emscripten.clang"
  },
  "schemaVersion": "3.4.16",
  "updatedAt": "2026-03-07T17:42:10.465Z",
  "devdoc": {
    "kind": "dev",
    "methods": {},
    "version": 1
  },
  "userdoc": {
    "kind": "user",
    "methods": {},
    "version": 1
  }
}