{
  "contractName": "MedicalApp",
  "abi": [
    {
      "inputs": [],
      "stateMutability": "nonpayable",
      "type": "constructor"
    },
    {
      "inputs": [],
      "name": "manager",
      "outputs": [
        {
          "internalType": "address",
          "name": "",
          "type": "address"
        }
      ],
      "stateMutability": "view",
      "type": "function"
    },
    {
      "inputs": [
        {
          "internalType": "address",
          "name": "patient_address",
          "type": "address"
        }
      ],
      "name": "getMedical",
      "outputs": [
        {
          "components": [
            {
              "internalType": "string",
              "name": "datetime",
              "type": "string"
            },
            {
              "internalType": "string",
              "name": "info",
              "type": "string"
            }
          ],
          "internalType": "struct MedicalApp.MedicalRecord[]",
          "name": "",
          "type": "tuple[]"
        },
        {
          "internalType": "bool",
          "name": "",
          "type": "bool"
        }
      ],
      "stateMutability": "view",
      "type": "function"
    },
    {
      "inputs": [
        {
          "internalType": "address",
          "name": "patient_address",
          "type": "address"
        },
        {
          "internalType": "string",
          "name": "datetime",
          "type": "string"
        },
        {
          "internalType": "string",
          "name": "info",
          "type": "string"
        }
      ],
      "name": "createMedicalRecord",
      "outputs": [
        {
          "internalType": "bool",
          "name": "",
          "type": "bool"
        }
      ],
      "stateMutability": "nonpayable",
      "type": "function"
    },
    {
      "inputs": [
        {
          "internalType": "address",
          "name": "doctor_address",
          "type": "address"
        }
      ],
      "name": "regDoctorPermit",
      "outputs": [
        {
          "internalType": "bool",
          "name": "",
          "type": "bool"
        }
      ],
      "stateMutability": "payable",
      "type": "function"
    },
    {
      "inputs": [],
      "name": "showDoctorPermit",
      "outputs": [
        {
          "internalType": "address[]",
          "name": "",
          "type": "address[]"
        }
      ],
      "stateMutability": "view",
      "type": "function"
    },
    {
      "inputs": [
        {
          "internalType": "address",
          "name": "doctor_address",
          "type": "address"
        }
      ],
      "name": "deleteDoctorPermit",
      "outputs": [
        {
          "internalType": "bool",
          "name": "",
          "type": "bool"
        },
        {
          "internalType": "string",
          "name": "",
          "type": "string"
        }
      ],
      "stateMutability": "nonpayable",
      "type": "function"
    }
  ],
  "bytecode": "0x608060405234801561000f575f80fd5b50600180546001600160a01b03191633179055610c788061002f5f395ff3fe608060405260043610610054575f3560e01c8063481c6a751461005857806350d9036114610094578063a79d6f08146100c3578063c616eeea146100d6578063c849241a14610103578063ed823b8114610130575b5f80fd5b348015610063575f80fd5b50600154610077906001600160a01b031681565b6040516001600160a01b0390911681526020015b60405180910390f35b34801561009f575f80fd5b506100b36100ae3660046108d3565b610151565b604051901515815260200161008b565b6100b36100d1366004610942565b610260565b3480156100e1575f80fd5b506100f56100f0366004610942565b6103b4565b60405161008b92919061099e565b34801561010e575f80fd5b5061012261011d366004610942565b610580565b60405161008b9291906109c0565b34801561013b575f80fd5b506101446107b2565b60405161008b9190610a4d565b5f80805b6001600160a01b0386165f908152602081905260409020600101548110156101da576001600160a01b0386165f9081526020819052604090206001018054339190839081106101a6576101a6610a99565b5f918252602090912001546001600160a01b0316036101c857600191506101da565b806101d281610ac1565b915050610155565b5080156102545760408051808201825285815260208082018690526001600160a01b0388165f9081528082529283208054600181018255908452922081519192839260029091029091019081906102319082610b59565b50602082015160018201906102469082610b59565b505050600192505050610259565b5f9150505b9392505050565b5f80805b335f908152602081905260409020600101548110156102e057335f90815260208190526040902060010180546001600160a01b0386169190839081106102ac576102ac610a99565b5f918252602090912001546001600160a01b0316036102ce57600191506102e0565b806102d881610ac1565b915050610264565b5080156103335760405162461bcd60e51b815260206004820152601f60248201527f54686520646f63746f7220697320616c7265616479207065726d697474656400604482015260640160405180910390fd5b335f908152602081815260408220600190810180549182018155835291200180546001600160a01b0319166001600160a01b03851617905534156103a5576040516001600160a01b038416903480156108fc02915f818181858888f193505050501580156103a3573d5f803e3d5ffd5b505b50600192915050565b50919050565b335f90815260208190526040812060010154606090825b8181101561053e57335f90815260208190526040902060010180546001600160a01b03871691908390811061040257610402610a99565b5f918252602090912001546001600160a01b03160361052c57335f9081526020819052604090206001908101906104399084610c15565b8154811061044957610449610a99565b5f91825260208083209091015433835290829052604090912060010180546001600160a01b03909216918390811061048357610483610a99565b5f91825260208083209190910180546001600160a01b0319166001600160a01b03949094169390931790925533815290819052604090206001018054806104cc576104cc610c2e565b600190038181905f5260205f20015f6101000a8154906001600160a01b0302191690559055600160405180604001604052806015815260200174151a1948191bd8dd1bdc881a5cc819195b195d1959605a1b815250935093505050915091565b8061053681610ac1565b9150506103cb565b505f6040518060400160405280601d81526020017f54686520646f63746f72206973206e6f7420696e20746865206c6973740000008152509250925050915091565b60605f80805b6001600160a01b0385165f9081526020819052604090206001015481101561060b576001600160a01b0385165f9081526020819052604090206001018054339190839081106105d7576105d7610a99565b5f918252602090912001546001600160a01b0316036105f9576001915061060b565b8061060381610ac1565b915050610586565b5080156107a6576001600160a01b0384165f90815260208181526040808320805482518185028101850190935280835290936001938592919084015b82821015610796578382905f5260205f2090600202016040518060400160405290815f8201805461067790610ad9565b80601f01602080910402602001604051908101604052809291908181526020018280546106a390610ad9565b80156106ee5780601f106106c5576101008083540402835291602001916106ee565b820191905f5260205f20905b8154815290600101906020018083116106d157829003601f168201915b5050505050815260200160018201805461070790610ad9565b80601f016020809104026020016040519081016040528092919081815260200182805461073390610ad9565b801561077e5780601f106107555761010080835404028352916020019161077e565b820191905f5260205f20905b81548152906001019060200180831161076157829003601f168201915b50505050508152505081526020019060010190610647565b5050505091509250925050915091565b506060935f9350915050565b335f908152602081815260409182902060010180548351818402810184019094528084526060939283018282801561081157602002820191905f5260205f20905b81546001600160a01b031681526001909101906020018083116107f3575b5050505050905090565b80356001600160a01b0381168114610831575f80fd5b919050565b634e487b7160e01b5f52604160045260245ffd5b5f82601f830112610859575f80fd5b813567ffffffffffffffff8082111561087457610874610836565b604051601f8301601f19908116603f0116810190828211818310171561089c5761089c610836565b816040528381528660208588010111156108b4575f80fd5b836020870160208301375f602085830101528094505050505092915050565b5f805f606084860312156108e5575f80fd5b6108ee8461081b565b9250602084013567ffffffffffffffff8082111561090a575f80fd5b6109168783880161084a565b9350604086013591508082111561092b575f80fd5b506109388682870161084a565b9150509250925092565b5f60208284031215610952575f80fd5b6102598261081b565b5f81518084525f5b8181101561097f57602081850181015186830182015201610963565b505f602082860101526020601f19601f83011685010191505092915050565b8215158152604060208201525f6109b8604083018461095b565b949350505050565b5f604080830181845280865180835260608601915060608160051b870101925060208089015f5b83811015610a3757888603605f1901855281518051888852610a0b8989018261095b565b9185015188830389870152919050610a23818361095b565b9750505093820193908201906001016109e7565b5050961515959096019490945295945050505050565b602080825282518282018190525f9190848201906040850190845b81811015610a8d5783516001600160a01b031683529284019291840191600101610a68565b50909695505050505050565b634e487b7160e01b5f52603260045260245ffd5b634e487b7160e01b5f52601160045260245ffd5b5f60018201610ad257610ad2610aad565b5060010190565b600181811c90821680610aed57607f821691505b6020821081036103ae57634e487b7160e01b5f52602260045260245ffd5b601f821115610b54575f81815260208120601f850160051c81016020861015610b315750805b601f850160051c820191505b81811015610b5057828155600101610b3d565b5050505b505050565b815167ffffffffffffffff811115610b7357610b73610836565b610b8781610b818454610ad9565b84610b0b565b602080601f831160018114610bba575f8415610ba35750858301515b5f19600386901b1c1916600185901b178555610b50565b5f85815260208120601f198616915b82811015610be857888601518255948401946001909101908401610bc9565b5085821015610c0557878501515f19600388901b60f8161c191681555b5050505050600190811b01905550565b81810381811115610c2857610c28610aad565b92915050565b634e487b7160e01b5f52603160045260245ffdfea2646970667358221220f7071d3237b768e6811e3c998e5122f8c988b4351236fd67bf07bf2359cb508364736f6c63430008140033",
  "immutableReferences": {},
  "source": "// SPDX-License-Identifier: MIT\r\npragma solidity ^0.8.15;\r\n\r\ncontract MedicalApp {\r\n    // structs\r\n    struct Patients {\r\n        MedicalRecord[] medicalRecords;\r\n        address[] DoctorPermit;\r\n    }\r\n\r\n    struct MedicalRecord{\r\n        string datetime;\r\n        string info;\r\n    }\r\n\r\n    // mapping\r\n    mapping (address => Patients) patients;\r\n\r\n    // modifier\r\n    address public manager;\r\n\r\n    // FIX: Thêm constructor để gán người deploy là manager\r\n    constructor() {\r\n        manager = msg.sender;\r\n    }\r\n\r\n    modifier restricted() {\r\n        require(msg.sender == manager, \"You are not the manager\");\r\n        _;\r\n    }\r\n\r\n    // Doctor functions\r\n    function getMedical(address patient_address) public view returns (MedicalRecord[] memory, bool){\r\n        bool isCheck = false;\r\n        for(uint i = 0; i < patients[patient_address].DoctorPermit.length; i++){\r\n            if(patients[patient_address].DoctorPermit[i] == msg.sender){\r\n                isCheck = true;\r\n                break; // Tối ưu: Tìm thấy thì dừng vòng lặp luôn để tiết kiệm Gas\r\n            }\r\n        }\r\n        \r\n        if(isCheck){\r\n            return (patients[patient_address].medicalRecords, true);\r\n        } else {\r\n            MedicalRecord[] memory empty;\r\n            return (empty, false);\r\n        }\r\n    }\r\n\r\n    function createMedicalRecord(address patient_address, string memory datetime, string memory info) public returns (bool){\r\n        bool isCheck = false;\r\n        for(uint i = 0; i < patients[patient_address].DoctorPermit.length; i++){\r\n            if(patients[patient_address].DoctorPermit[i] == msg.sender){\r\n                isCheck = true;\r\n                break; // Tối ưu Gas\r\n            }\r\n        }\r\n        \r\n        if(isCheck){\r\n            MedicalRecord memory newMedicalRecord = MedicalRecord(datetime, info);\r\n            patients[patient_address].medicalRecords.push(newMedicalRecord);\r\n            return true;\r\n        } else {\r\n            return false;\r\n        }\r\n    }\r\n\r\n    // Patient functions\r\n    function regDoctorPermit(address doctor_address) public payable returns (bool){\r\n        bool isCheck = false;\r\n        for(uint i = 0; i < patients[msg.sender].DoctorPermit.length; i++){\r\n            if(patients[msg.sender].DoctorPermit[i] == doctor_address){\r\n                isCheck = true;\r\n                break;\r\n            }\r\n        }\r\n        \r\n        if (isCheck){\r\n            // Nếu đã cấp quyền rồi mà vẫn gọi hàm có gửi tiền -> Hoàn trả lại tiền (revert)\r\n            revert(\"The doctor is already permitted\");\r\n        } else {\r\n            patients[msg.sender].DoctorPermit.push(doctor_address);\r\n            \r\n            // FIX: LOGIC CHUYỂN TIỀN CHO BÁC SĨ\r\n            // Nếu bệnh nhân có đính kèm ETH (msg.value > 0) khi gọi hàm, chuyển số tiền đó vào ví bác sĩ\r\n            if (msg.value > 0) {\r\n                payable(doctor_address).transfer(msg.value);\r\n            }\r\n            \r\n            return true;\r\n        }\r\n    }\r\n\r\n    function showDoctorPermit() public view returns (address[] memory){\r\n        return patients[msg.sender].DoctorPermit;\r\n    }\r\n\r\n    function deleteDoctorPermit(address doctor_address) public returns (bool, string memory){\r\n        uint length = patients[msg.sender].DoctorPermit.length;\r\n        \r\n        for(uint i = 0; i < length; i++){\r\n            if(patients[msg.sender].DoctorPermit[i] == doctor_address){\r\n                \r\n                // FIX: XÓA TRIỆT ĐỂ KHỎI MẢNG TRÁNH LỖI ENS NAME TRÊN FRONTEND\r\n                // B1: Đưa phần tử cuối cùng của mảng đè lên vị trí của phần tử cần xóa\r\n                patients[msg.sender].DoctorPermit[i] = patients[msg.sender].DoctorPermit[length - 1];\r\n                \r\n                // B2: Cắt bỏ đuôi mảng (xóa hoàn toàn)\r\n                patients[msg.sender].DoctorPermit.pop();\r\n                \r\n                return (true, \"The doctor is deleted\");\r\n            }\r\n        }\r\n        return (false, \"The doctor is not in the list\");\r\n    }\r\n}",
  "sourcePath": "C:\\Project BlockChain\\Medical-Healthcare-Dapp\\smart_contract\\contracts\\MedicalApp.sol",
  "compiler": {
    "name": "solc",
    "version": "0.8.20+commit.a1b79de6.Emscripten.clang"
  },
  "schemaVersion": "3.4.16",
  "updatedAt": "2026-03-16T16:19:13.926Z",
  "devdoc": {
    "kind": "dev",
    "methods": {},
    "version": 1
  },
  "userdoc": {
    "kind": "user",
    "methods": {},
    "version": 1
  }
}